03300000        2049938327000106000100001201344                         UBRASP - UNIAO BRASILEIRA     Banco Santander                         106122016      000037040                                                                          
03300011R01  030 2049938327000106                    000100001201344     UBRASP - UNIAO BRASILEIRA                                                                                     0000000106122016                                         
0330001300001P 010001001301476520130147652  0000000035301511  0000000000035301512201600000000006411300000 02N061220163000000000000000000000000000000000000000000000000000000000000000000000000000000000000000000000000003530000300000           
0330001300002Q 011000004803498865CRISTIANE PERELLO                       RUA UBAIRA, 12                          INDIANOPOLIS   04517140SAO PAULO      SP0000000000000000                                        000000000000                   
0330001300003P 010001001301476520130147652  0000000035319511  0000000000035311501201700000000006411300000 02N061220163000000000000000000000000000000000000000000000000000000000000000000000000000000000000000000000000003531000300000           
0330001300004Q 011000004803498865CRISTIANE PERELLO                       RUA UBAIRA, 12                          INDIANOPOLIS   04517140SAO PAULO      SP0000000000000000                                        000000000000                   
0330001300005P 010001001301476520130147652  0000000035327511  0000000000035321502201700000000006411300000 02N061220163000000000000000000000000000000000000000000000000000000000000000000000000000000000000000000000000003532000300000           
0330001300006Q 011000004803498865CRISTIANE PERELLO                       RUA UBAIRA, 12                          INDIANOPOLIS   04517140SAO PAULO      SP0000000000000000                                        000000000000                   
0330001300007P 010001001301476520130147652  0000000035335511  0000000000035331503201700000000006411300000 02N061220163000000000000000000000000000000000000000000000000000000000000000000000000000000000000000000000000003533000300000           
0330001300008Q 011000004803498865CRISTIANE PERELLO                       RUA UBAIRA, 12                          INDIANOPOLIS   04517140SAO PAULO      SP0000000000000000                                        000000000000                   
0330001300009P 010001001301476520130147652  0000000035343511  0000000000035341504201700000000006411300000 02N061220163000000000000000000000000000000000000000000000000000000000000000000000000000000000000000000000000003534000300000           
0330001300010Q 011000004803498865CRISTIANE PERELLO                       RUA UBAIRA, 12                          INDIANOPOLIS   04517140SAO PAULO      SP0000000000000000                                        000000000000                   
0330001300011P 010001001301476520130147652  0000000035351511  0000000000035351505201700000000006411300000 02N061220163000000000000000000000000000000000000000000000000000000000000000000000000000000000000000000000000003535000300000           
0330001300012Q 011000004803498865CRISTIANE PERELLO                       RUA UBAIRA, 12                          INDIANOPOLIS   04517140SAO PAULO      SP0000000000000000                                        000000000000                   
0330001300013P 010001001301476520130147652  0000000035904511  0000000000035901512201600000000029903300000 02N061220163000000000000000000000000000000000000000000000000000000000000000000000000000000000000000000000000003590000300000           
0330001300014Q 011000004223648861IGNEZ HERNANDES SOARES                  RUA ATILIO PIFFER, 489 AP 22A           CASA VERDE     02516000SAO PAULO      SP0000000000000000                                        000000000000                   
0330001300015P 010001001301476520130147652  0000000035912511  0000000000035911501201700000000029903300000 02N061220163000000000000000000000000000000000000000000000000000000000000000000000000000000000000000000000000003591000300000           
0330001300016Q 011000004223648861IGNEZ HERNANDES SOARES                  RUA ATILIO PIFFER, 489 AP 22A           CASA VERDE     02516000SAO PAULO      SP0000000000000000                                        000000000000                   
0330001300017P 010001001301476520130147652  0000000035921511  0000000000035921502201700000000029903300000 02N061220163000000000000000000000000000000000000000000000000000000000000000000000000000000000000000000000000003592000300000           
0330001300018Q 011000004223648861IGNEZ HERNANDES SOARES                  RUA ATILIO PIFFER, 489 AP 22A           CASA VERDE     02516000SAO PAULO      SP0000000000000000                                        000000000000                   
0330001300019P 010001001301476520130147652  0000000035939511  0000000000035931503201700000000029903300000 02N061220163000000000000000000000000000000000000000000000000000000000000000000000000000000000000000000000000003593000300000           
0330001300020Q 011000004223648861IGNEZ HERNANDES SOARES                  RUA ATILIO PIFFER, 489 AP 22A           CASA VERDE     02516000SAO PAULO      SP0000000000000000                                        000000000000                   
0330001300021P 010001001301476520130147652  0000000035947511  0000000000035941504201700000000029903300000 02N061220163000000000000000000000000000000000000000000000000000000000000000000000000000000000000000000000000003594000300000           
0330001300022Q 011000004223648861IGNEZ HERNANDES SOARES                  RUA ATILIO PIFFER, 489 AP 22A           CASA VERDE     02516000SAO PAULO      SP0000000000000000                                        000000000000                   
0330001300023P 010001001301476520130147652  0000000035955511  0000000000035951505201700000000029903300000 02N061220163000000000000000000000000000000000000000000000000000000000000000000000000000000000000000000000000003595000300000           
0330001300024Q 011000004223648861IGNEZ HERNANDES SOARES                  RUA ATILIO PIFFER, 489 AP 22A           CASA VERDE     02516000SAO PAULO      SP0000000000000000                                        000000000000                   
0330001300025P 010001001301476520130147652  0000000036501511  0000000000036501512201600000000006585500000 02N061220163000000000000000000000000000000000000000000000000000000000000000000000000000000000000000000000000003650000300000           
0330001300026Q 011000009141965884MARCIA VALERIA SILVA                    R MINISTRO ADAUTO LUCIO CARDO,267,CASA 2VILA GOMES     05589000SAO PAULO      SP0000000000000000                                        000000000000                   
0330001300027P 010001001301476520130147652  0000000036511511  0000000000036511501201700000000006585500000 02N061220163000000000000000000000000000000000000000000000000000000000000000000000000000000000000000000000000003651000300000           
0330001300028Q 011000009141965884MARCIA VALERIA SILVA                    R MINISTRO ADAUTO LUCIO CARDO,267,CASA 2VILA GOMES     05589000SAO PAULO      SP0000000000000000                                        000000000000                   
0330001300029P 010001001301476520130147652  0000000036528511  0000000000036521502201700000000006585500000 02N061220163000000000000000000000000000000000000000000000000000000000000000000000000000000000000000000000000003652000300000           
0330001300030Q 011000009141965884MARCIA VALERIA SILVA                    R MINISTRO ADAUTO LUCIO CARDO,267,CASA 2VILA GOMES     05589000SAO PAULO      SP0000000000000000                                        000000000000                   
0330001300031P 010001001301476520130147652  0000000036536511  0000000000036531503201700000000006585500000 02N061220163000000000000000000000000000000000000000000000000000000000000000000000000000000000000000000000000003653000300000           
0330001300032Q 011000009141965884MARCIA VALERIA SILVA                    R MINISTRO ADAUTO LUCIO CARDO,267,CASA 2VILA GOMES     05589000SAO PAULO      SP0000000000000000                                        000000000000                   
0330001300033P 010001001301476520130147652  0000000036544511  0000000000036541504201700000000006585500000 02N061220163000000000000000000000000000000000000000000000000000000000000000000000000000000000000000000000000003654000300000           
0330001300034Q 011000009141965884MARCIA VALERIA SILVA                    R MINISTRO ADAUTO LUCIO CARDO,267,CASA 2VILA GOMES     05589000SAO PAULO      SP0000000000000000                                        000000000000                   
0330001300035P 010001001301476520130147652  0000000036552511  0000000000036551505201700000000006585500000 02N061220163000000000000000000000000000000000000000000000000000000000000000000000000000000000000000000000000003655000300000           
0330001300036Q 011000009141965884MARCIA VALERIA SILVA                    R MINISTRO ADAUTO LUCIO CARDO,267,CASA 2VILA GOMES     05589000SAO PAULO      SP0000000000000000                                        000000000000                   
0330001300037P 010001001301476520130147652  0000000035602511  0000000000035601512201600000000019914200000 02N061220163000000000000000000000000000000000000000000000000000000000000000000000000000000000000000000000000003560000300000           
0330001300038Q 011000099974584868GERALDO SAMPAIO MAGALHAES               R FLORIANO PEIXOTO 1027                 JD SAO LUIZ    08528330F VASCONCELOS  SP0000000000000000                                        000000000000                   
0330001300039P 010001001301476520130147652  0000000035611511  0000000000035611501201700000000019914200000 02N061220163000000000000000000000000000000000000000000000000000000000000000000000000000000000000000000000000003561000300000           
0330001300040Q 011000099974584868GERALDO SAMPAIO MAGALHAES               R FLORIANO PEIXOTO 1027                 JD SAO LUIZ    08528330F VASCONCELOS  SP0000000000000000                                        000000000000                   
0330001300041P 010001001301476520130147652  0000000035629511  0000000000035621502201700000000019914200000 02N061220163000000000000000000000000000000000000000000000000000000000000000000000000000000000000000000000000003562000300000           
0330001300042Q 011000099974584868GERALDO SAMPAIO MAGALHAES               R FLORIANO PEIXOTO 1027                 JD SAO LUIZ    08528330F VASCONCELOS  SP0000000000000000                                        000000000000                   
0330001300043P 010001001301476520130147652  0000000035637511  0000000000035631503201700000000019914200000 02N061220163000000000000000000000000000000000000000000000000000000000000000000000000000000000000000000000000003563000300000           
0330001300044Q 011000099974584868GERALDO SAMPAIO MAGALHAES               R FLORIANO PEIXOTO 1027                 JD SAO LUIZ    08528330F VASCONCELOS  SP0000000000000000                                        000000000000                   
0330001300045P 010001001301476520130147652  0000000035645511  0000000000035641504201700000000019914200000 02N061220163000000000000000000000000000000000000000000000000000000000000000000000000000000000000000000000000003564000300000           
0330001300046Q 011000099974584868GERALDO SAMPAIO MAGALHAES               R FLORIANO PEIXOTO 1027                 JD SAO LUIZ    08528330F VASCONCELOS  SP0000000000000000                                        000000000000                   
0330001300047P 010001001301476520130147652  0000000035653511  0000000000035651505201700000000019914200000 02N061220163000000000000000000000000000000000000000000000000000000000000000000000000000000000000000000000000003565000300000           
0330001300048Q 011000099974584868GERALDO SAMPAIO MAGALHAES               R FLORIANO PEIXOTO 1027                 JD SAO LUIZ    08528330F VASCONCELOS  SP0000000000000000                                        000000000000                   
0330001300049P 010001001301476520130147652  0000000035785511  0000000000035781512201600000000013425000000 02N061220163000000000000000000000000000000000000000000000000000000000000000000000000000000000000000000000000003578000300000           
0330001300050Q 011000009406831805GLAUCIO MOURA PEREIRA                   R GIACAMA DALAMI, 361                   NOVA GETI      09580350SAO CAETANO    SP0000000000000000                                        000000000000                   
0330001300051P 010001001301476520130147652  0000000035793511  0000000000035791501201700000000013425000000 02N061220163000000000000000000000000000000000000000000000000000000000000000000000000000000000000000000000000003579000300000           
0330001300052Q 011000009406831805GLAUCIO MOURA PEREIRA                   R GIACAMA DALAMI, 361                   NOVA GETI      09580350SAO CAETANO    SP0000000000000000                                        000000000000                   
0330001300053P 010001001301476520130147652  0000000035807511  0000000000035801502201700000000013425000000 02N061220163000000000000000000000000000000000000000000000000000000000000000000000000000000000000000000000000003580000300000           
0330001300054Q 011000009406831805GLAUCIO MOURA PEREIRA                   R GIACAMA DALAMI, 361                   NOVA GETI      09580350SAO CAETANO    SP0000000000000000                                        000000000000                   
0330001300055P 010001001301476520130147652  0000000035815511  0000000000035811503201700000000013425000000 02N061220163000000000000000000000000000000000000000000000000000000000000000000000000000000000000000000000000003581000300000           
0330001300056Q 011000009406831805GLAUCIO MOURA PEREIRA                   R GIACAMA DALAMI, 361                   NOVA GETI      09580350SAO CAETANO    SP0000000000000000                                        000000000000                   
0330001300057P 010001001301476520130147652  0000000035823511  0000000000035821504201700000000013425000000 02N061220163000000000000000000000000000000000000000000000000000000000000000000000000000000000000000000000000003582000300000           
0330001300058Q 011000009406831805GLAUCIO MOURA PEREIRA                   R GIACAMA DALAMI, 361                   NOVA GETI      09580350SAO CAETANO    SP0000000000000000                                        000000000000                   
0330001300059P 010001001301476520130147652  0000000035831511  0000000000035831505201700000000013425000000 02N061220163000000000000000000000000000000000000000000000000000000000000000000000000000000000000000000000000003583000300000           
0330001300060Q 011000009406831805GLAUCIO MOURA PEREIRA                   R GIACAMA DALAMI, 361                   NOVA GETI      09580350SAO CAETANO    SP0000000000000000                                        000000000000                   
0330001300061P 010001001301476520130147652  0000000035963511  0000000000035961512201600000000013202700000 02N061220163000000000000000000000000000000000000000000000000000000000000000000000000000000000000000000000000003596000300000           
0330001300062Q 011000007201595806ISABEL APARECIDA DE ARRUDA              R VIGARIO TAQUESBITTENC,BLOCO AP - 1006 STO AMARO      04755060SAO PAULO      SP0000000000000000                                        000000000000                   
0330001300063P 010001001301476520130147652  0000000035971511  0000000000035971501201700000000013202700000 02N061220163000000000000000000000000000000000000000000000000000000000000000000000000000000000000000000000000003597000300000           
0330001300064Q 011000007201595806ISABEL APARECIDA DE ARRUDA              R VIGARIO TAQUESBITTENC,BLOCO AP - 1006 STO AMARO      04755060SAO PAULO      SP0000000000000000                                        000000000000                   
0330001300065P 010001001301476520130147652  0000000035981511  0000000000035981502201700000000013202700000 02N061220163000000000000000000000000000000000000000000000000000000000000000000000000000000000000000000000000003598000300000           
0330001300066Q 011000007201595806ISABEL APARECIDA DE ARRUDA              R VIGARIO TAQUESBITTENC,BLOCO AP - 1006 STO AMARO      04755060SAO PAULO      SP0000000000000000                                        000000000000                   
0330001300067P 010001001301476520130147652  0000000035998511  0000000000035991503201700000000013202700000 02N061220163000000000000000000000000000000000000000000000000000000000000000000000000000000000000000000000000003599000300000           
0330001300068Q 011000007201595806ISABEL APARECIDA DE ARRUDA              R VIGARIO TAQUESBITTENC,BLOCO AP - 1006 STO AMARO      04755060SAO PAULO      SP0000000000000000                                        000000000000                   
0330001300069P 010001001301476520130147652  0000000036005511  0000000000036001504201700000000013202700000 02N061220163000000000000000000000000000000000000000000000000000000000000000000000000000000000000000000000000003600000300000           
0330001300070Q 011000007201595806ISABEL APARECIDA DE ARRUDA              R VIGARIO TAQUESBITTENC,BLOCO AP - 1006 STO AMARO      04755060SAO PAULO      SP0000000000000000                                        000000000000                   
0330001300071P 010001001301476520130147652  0000000036013511  0000000000036011505201700000000013202700000 02N061220163000000000000000000000000000000000000000000000000000000000000000000000000000000000000000000000000003601000300000           
0330001300072Q 011000007201595806ISABEL APARECIDA DE ARRUDA              R VIGARIO TAQUESBITTENC,BLOCO AP - 1006 STO AMARO      04755060SAO PAULO      SP0000000000000000                                        000000000000                   
0330001300073P 010001001301476520130147652  0000000037044511  0000000000037041512201600000000014423400000 02N061220163000000000000000000000000000000000000000000000000000000000000000000000000000000000000000000000000003704000300000           
0330001300074Q 011000005573376829ROGERIO CARLOS CIRINO                   R CEDRO ROSA, 65 BL 01 AP 72            CON H S BRITO  05885400SAO PAULO      SP0000000000000000                                        000000000000                   
0330001300075P 010001001301476520130147652  0000000037052511  0000000000037051501201700000000014423400000 02N061220163000000000000000000000000000000000000000000000000000000000000000000000000000000000000000000000000003705000300000           
0330001300076Q 011000005573376829ROGERIO CARLOS CIRINO                   R CEDRO ROSA, 65 BL 01 AP 72            CON H S BRITO  05885400SAO PAULO      SP0000000000000000                                        000000000000                   
0330001300077P 010001001301476520130147652  0000000037061511  0000000000037061502201700000000014423400000 02N061220163000000000000000000000000000000000000000000000000000000000000000000000000000000000000000000000000003706000300000           
0330001300078Q 011000005573376829ROGERIO CARLOS CIRINO                   R CEDRO ROSA, 65 BL 01 AP 72            CON H S BRITO  05885400SAO PAULO      SP0000000000000000                                        000000000000                   
0330001300079P 010001001301476520130147652  0000000037079511  0000000000037071503201700000000014423400000 02N061220163000000000000000000000000000000000000000000000000000000000000000000000000000000000000000000000000003707000300000           
0330001300080Q 011000005573376829ROGERIO CARLOS CIRINO                   R CEDRO ROSA, 65 BL 01 AP 72            CON H S BRITO  05885400SAO PAULO      SP0000000000000000                                        000000000000                   
0330001300081P 010001001301476520130147652  0000000037087511  0000000000037081504201700000000014423400000 02N061220163000000000000000000000000000000000000000000000000000000000000000000000000000000000000000000000000003708000300000           
0330001300082Q 011000005573376829ROGERIO CARLOS CIRINO                   R CEDRO ROSA, 65 BL 01 AP 72            CON H S BRITO  05885400SAO PAULO      SP0000000000000000                                        000000000000                   
0330001300083P 010001001301476520130147652  0000000037095511  0000000000037091505201700000000014423400000 02N061220163000000000000000000000000000000000000000000000000000000000000000000000000000000000000000000000000003709000300000           
0330001300084Q 011000005573376829ROGERIO CARLOS CIRINO                   R CEDRO ROSA, 65 BL 01 AP 72            CON H S BRITO  05885400SAO PAULO      SP0000000000000000                                        000000000000                   
0330001300085P 010001001301476520130147652  0000000036081511  0000000000036081512201600000000003839800000 02N061220163000000000000000000000000000000000000000000000000000000000000000000000000000000000000000000000000003608000300000           
0330001300086Q 011000084977809491JAQUELINE MARIA DE BARROS               
0330001300087P 010001001301476520130147652  0000000036099511  0000000000036091501201700000000003839800000 02N061220163000000000000000000000000000000000000000000000000000000000000000000000000000000000000000000000000003609000300000           
0330001300088Q 011000084977809491JAQUELINE MARIA DE BARROS               
0330001300089P 010001001301476520130147652  0000000036102511  0000000000036101502201700000000003839800000 02N061220163000000000000000000000000000000000000000000000000000000000000000000000000000000000000000000000000003610000300000           
0330001300090Q 011000084977809491JAQUELINE MARIA DE BARROS               
0330001300091P 010001001301476520130147652  0000000036111511  0000000000036111503201700000000003839800000 02N061220163000000000000000000000000000000000000000000000000000000000000000000000000000000000000000000000000003611000300000           
0330001300092Q 011000084977809491JAQUELINE MARIA DE BARROS               
0330001300093P 010001001301476520130147652  0000000036129511  0000000000036121504201700000000003839800000 02N061220163000000000000000000000000000000000000000000000000000000000000000000000000000000000000000000000000003612000300000           
0330001300094Q 011000084977809491JAQUELINE MARIA DE BARROS               
0330001300095P 010001001301476520130147652  0000000036137511  0000000000036131505201700000000003839800000 02N061220163000000000000000000000000000000000000000000000000000000000000000000000000000000000000000000000000003613000300000           
0330001300096Q 011000084977809491JAQUELINE MARIA DE BARROS               
0330001300097P 010001001301476520130147652  0000000035361511  0000000000035361512201600000000002587800000 02N061220163000000000000000000000000000000000000000000000000000000000000000000000000000000000000000000000000003536000300000           
0330001300098Q 011000024831228842CRISTIANE REGINA D CAPUSSO              AV FRANCISCO MATARAZO, 121 AP 915       AGUA BRANCA    05001000SAO PAULO      SP0000000000000000                                        000000000000                   
0330001300099P 010001001301476520130147652  0000000035378511  0000000000035371501201700000000002587800000 02N061220163000000000000000000000000000000000000000000000000000000000000000000000000000000000000000000000000003537000300000           
0330001300100Q 011000024831228842CRISTIANE REGINA D CAPUSSO              AV FRANCISCO MATARAZO, 121 AP 915       AGUA BRANCA    05001000SAO PAULO      SP0000000000000000                                        000000000000                   
0330001300101P 010001001301476520130147652  0000000035386511  0000000000035381502201700000000002587800000 02N061220163000000000000000000000000000000000000000000000000000000000000000000000000000000000000000000000000003538000300000           
0330001300102Q 011000024831228842CRISTIANE REGINA D CAPUSSO              AV FRANCISCO MATARAZO, 121 AP 915       AGUA BRANCA    05001000SAO PAULO      SP0000000000000000                                        000000000000                   
0330001300103P 010001001301476520130147652  0000000035394511  0000000000035391503201700000000002587800000 02N061220163000000000000000000000000000000000000000000000000000000000000000000000000000000000000000000000000003539000300000           
0330001300104Q 011000024831228842CRISTIANE REGINA D CAPUSSO              AV FRANCISCO MATARAZO, 121 AP 915       AGUA BRANCA    05001000SAO PAULO      SP0000000000000000                                        000000000000                   
0330001300105P 010001001301476520130147652  0000000035408511  0000000000035401504201700000000002587800000 02N061220163000000000000000000000000000000000000000000000000000000000000000000000000000000000000000000000000003540000300000           
0330001300106Q 011000024831228842CRISTIANE REGINA D CAPUSSO              AV FRANCISCO MATARAZO, 121 AP 915       AGUA BRANCA    05001000SAO PAULO      SP0000000000000000                                        000000000000                   
0330001300107P 010001001301476520130147652  0000000035416511  0000000000035411505201700000000002587800000 02N061220163000000000000000000000000000000000000000000000000000000000000000000000000000000000000000000000000003541000300000           
0330001300108Q 011000024831228842CRISTIANE REGINA D CAPUSSO              AV FRANCISCO MATARAZO, 121 AP 915       AGUA BRANCA    05001000SAO PAULO      SP0000000000000000                                        000000000000                   
0330001300109P 010001001301476520130147652  0000000036749511  0000000000036741512201600000000004003100000 02N061220163000000000000000000000000000000000000000000000000000000000000000000000000000000000000000000000000003674000300000           
0330001300110Q 011000003804600840MARIA LUIZA BATISTA                     AV SEN TEOTONIO VILELA 4029 BL,BLOCO 32 JORDENOPOLIS   04833001SAO PAULO      SP0000000000000000                                        000000000000                   
0330001300111P 010001001301476520130147652  0000000036757511  0000000000036751501201700000000004003100000 02N061220163000000000000000000000000000000000000000000000000000000000000000000000000000000000000000000000000003675000300000           
0330001300112Q 011000003804600840MARIA LUIZA BATISTA                     AV SEN TEOTONIO VILELA 4029 BL,BLOCO 32 JORDENOPOLIS   04833001SAO PAULO      SP0000000000000000                                        000000000000                   
0330001300113P 010001001301476520130147652  0000000036765511  0000000000036761502201700000000004003100000 02N061220163000000000000000000000000000000000000000000000000000000000000000000000000000000000000000000000000003676000300000           
0330001300114Q 011000003804600840MARIA LUIZA BATISTA                     AV SEN TEOTONIO VILELA 4029 BL,BLOCO 32 JORDENOPOLIS   04833001SAO PAULO      SP0000000000000000                                        000000000000                   
0330001300115P 010001001301476520130147652  0000000036773511  0000000000036771503201700000000004003100000 02N061220163000000000000000000000000000000000000000000000000000000000000000000000000000000000000000000000000003677000300000           
0330001300116Q 011000003804600840MARIA LUIZA BATISTA                     AV SEN TEOTONIO VILELA 4029 BL,BLOCO 32 JORDENOPOLIS   04833001SAO PAULO      SP0000000000000000                                        000000000000                   
0330001300117P 010001001301476520130147652  0000000036781511  0000000000036781504201700000000004003100000 02N061220163000000000000000000000000000000000000000000000000000000000000000000000000000000000000000000000000003678000300000           
0330001300118Q 011000003804600840MARIA LUIZA BATISTA                     AV SEN TEOTONIO VILELA 4029 BL,BLOCO 32 JORDENOPOLIS   04833001SAO PAULO      SP0000000000000000                                        000000000000                   
0330001300119P 010001001301476520130147652  0000000036791511  0000000000036791505201700000000004003100000 02N061220163000000000000000000000000000000000000000000000000000000000000000000000000000000000000000000000000003679000300000           
0330001300120Q 011000003804600840MARIA LUIZA BATISTA                     AV SEN TEOTONIO VILELA 4029 BL,BLOCO 32 JORDENOPOLIS   04833001SAO PAULO      SP0000000000000000                                        000000000000                   
0330001300121P 010001001301476520130147652  0000000037222511  0000000000037221512201600000000005321900000 02N061220163000000000000000000000000000000000000000000000000000000000000000000000000000000000000000000000000003722000300000           
0330001300122Q 011000024928768884SHIRLEI PEREIRA PENHA                   R JACOBI VALENTINO DASSOLI, 14 AP,401   JD IRAJA       09781400SAO B CAMPO    SP0000000000000000                                        000000000000                   
0330001300123P 010001001301476520130147652  0000000037231511  0000000000037231501201700000000005321900000 02N061220163000000000000000000000000000000000000000000000000000000000000000000000000000000000000000000000000003723000300000           
0330001300124Q 011000024928768884SHIRLEI PEREIRA PENHA                   R JACOBI VALENTINO DASSOLI, 14 AP,401   JD IRAJA       09781400SAO B CAMPO    SP0000000000000000                                        000000000000                   
0330001300125P 010001001301476520130147652  0000000037249511  0000000000037241502201700000000005321900000 02N061220163000000000000000000000000000000000000000000000000000000000000000000000000000000000000000000000000003724000300000           
0330001300126Q 011000024928768884SHIRLEI PEREIRA PENHA                   R JACOBI VALENTINO DASSOLI, 14 AP,401   JD IRAJA       09781400SAO B CAMPO    SP0000000000000000                                        000000000000                   
0330001300127P 010001001301476520130147652  0000000037257511  0000000000037251503201700000000005321900000 02N061220163000000000000000000000000000000000000000000000000000000000000000000000000000000000000000000000000003725000300000           
0330001300128Q 011000024928768884SHIRLEI PEREIRA PENHA                   R JACOBI VALENTINO DASSOLI, 14 AP,401   JD IRAJA       09781400SAO B CAMPO    SP0000000000000000                                        000000000000                   
0330001300129P 010001001301476520130147652  0000000037265511  0000000000037261504201700000000005321900000 02N061220163000000000000000000000000000000000000000000000000000000000000000000000000000000000000000000000000003726000300000           
0330001300130Q 011000024928768884SHIRLEI PEREIRA PENHA                   R JACOBI VALENTINO DASSOLI, 14 AP,401   JD IRAJA       09781400SAO B CAMPO    SP0000000000000000                                        000000000000                   
0330001300131P 010001001301476520130147652  0000000037273511  0000000000037271505201700000000005321900000 02N061220163000000000000000000000000000000000000000000000000000000000000000000000000000000000000000000000000003727000300000           
0330001300132Q 011000024928768884SHIRLEI PEREIRA PENHA                   R JACOBI VALENTINO DASSOLI, 14 AP,401   JD IRAJA       09781400SAO B CAMPO    SP0000000000000000                                        000000000000                   
0330001300133P 010001001301476520130147652  0000000037281511  0000000000037281512201600000000003342500000 02N061220163000000000000000000000000000000000000000000000000000000000000000000000000000000000000000000000000003728000300000           
0330001300134Q 011000026423964874SIMONE APARECIDA SANTOS                 R MIGUEL GONCALVES DOS REIS, 135        MORRO GRANDE   02809050SAO PAULO      SP0000000000000000                                        000000000000                   
0330001300135P 010001001301476520130147652  0000000037291511  0000000000037291501201700000000003342500000 02N061220163000000000000000000000000000000000000000000000000000000000000000000000000000000000000000000000000003729000300000           
0330001300136Q 011000026423964874SIMONE APARECIDA SANTOS                 R MIGUEL GONCALVES DOS REIS, 135        MORRO GRANDE   02809050SAO PAULO      SP0000000000000000                                        000000000000                   
0330001300137P 010001001301476520130147652  0000000037303511  0000000000037301502201700000000003342500000 02N061220163000000000000000000000000000000000000000000000000000000000000000000000000000000000000000000000000003730000300000           
0330001300138Q 011000026423964874SIMONE APARECIDA SANTOS                 R MIGUEL GONCALVES DOS REIS, 135        MORRO GRANDE   02809050SAO PAULO      SP0000000000000000                                        000000000000                   
0330001300139P 010001001301476520130147652  0000000037311511  0000000000037311503201700000000003342500000 02N061220163000000000000000000000000000000000000000000000000000000000000000000000000000000000000000000000000003731000300000           
0330001300140Q 011000026423964874SIMONE APARECIDA SANTOS                 R MIGUEL GONCALVES DOS REIS, 135        MORRO GRANDE   02809050SAO PAULO      SP0000000000000000                                        000000000000                   
0330001300141P 010001001301476520130147652  0000000037321511  0000000000037321504201700000000003342500000 02N061220163000000000000000000000000000000000000000000000000000000000000000000000000000000000000000000000000003732000300000           
0330001300142Q 011000026423964874SIMONE APARECIDA SANTOS                 R MIGUEL GONCALVES DOS REIS, 135        MORRO GRANDE   02809050SAO PAULO      SP0000000000000000                                        000000000000                   
0330001300143P 010001001301476520130147652  0000000037338511  0000000000037331505201700000000003342500000 02N061220163000000000000000000000000000000000000000000000000000000000000000000000000000000000000000000000000003733000300000           
0330001300144Q 011000026423964874SIMONE APARECIDA SANTOS                 R MIGUEL GONCALVES DOS REIS, 135        MORRO GRANDE   02809050SAO PAULO      SP0000000000000000                                        000000000000                   
0330001300145P 010001001301476520130147652  0000000036201511  0000000000036201512201600000000003342500000 02N061220163000000000000000000000000000000000000000000000000000000000000000000000000000000000000000000000000003620000300000           
0330001300146Q 011000027433748881KELLY REGINA MASTROGIOVANNI             R NEGATA, 100                           JD JAPAO       02124080SAO PAULO      SP0000000000000000                                        000000000000                   
0330001300147P 010001001301476520130147652  0000000036218511  0000000000036211501201700000000003342500000 02N061220163000000000000000000000000000000000000000000000000000000000000000000000000000000000000000000000000003621000300000           
0330001300148Q 011000027433748881KELLY REGINA MASTROGIOVANNI             R NEGATA, 100                           JD JAPAO       02124080SAO PAULO      SP0000000000000000                                        000000000000                   
0330001300149P 010001001301476520130147652  0000000036226511  0000000000036221502201700000000003342500000 02N061220163000000000000000000000000000000000000000000000000000000000000000000000000000000000000000000000000003622000300000           
0330001300150Q 011000027433748881KELLY REGINA MASTROGIOVANNI             R NEGATA, 100                           JD JAPAO       02124080SAO PAULO      SP0000000000000000                                        000000000000                   
0330001300151P 010001001301476520130147652  0000000036234511  0000000000036231503201700000000003342500000 02N061220163000000000000000000000000000000000000000000000000000000000000000000000000000000000000000000000000003623000300000           
0330001300152Q 011000027433748881KELLY REGINA MASTROGIOVANNI             R NEGATA, 100                           JD JAPAO       02124080SAO PAULO      SP0000000000000000                                        000000000000                   
0330001300153P 010001001301476520130147652  0000000036242511  0000000000036241504201700000000003342500000 02N061220163000000000000000000000000000000000000000000000000000000000000000000000000000000000000000000000000003624000300000           
0330001300154Q 011000027433748881KELLY REGINA MASTROGIOVANNI             R NEGATA, 100                           JD JAPAO       02124080SAO PAULO      SP0000000000000000                                        000000000000                   
0330001300155P 010001001301476520130147652  0000000036251511  0000000000036251505201700000000003342500000 02N061220163000000000000000000000000000000000000000000000000000000000000000000000000000000000000000000000000003625000300000           
0330001300156Q 011000027433748881KELLY REGINA MASTROGIOVANNI             R NEGATA, 100                           JD JAPAO       02124080SAO PAULO      SP0000000000000000                                        000000000000                   
0330001300157P 010001001301476520130147652  0000000036323511  0000000000036321512201600000000002587800000 02N061220163000000000000000000000000000000000000000000000000000000000000000000000000000000000000000000000000003632000300000           
0330001300158Q 011000053670167315LEIDIANA BARREIRA CORADO DE SOUSA       R JULIO COLACO, 555                     VL ARICANDUVA  03502050SAO PAULO      SP0000000000000000                                        000000000000                   
0330001300159P 010001001301476520130147652  0000000036331511  0000000000036331501201700000000002587800000 02N061220163000000000000000000000000000000000000000000000000000000000000000000000000000000000000000000000000003633000300000           
0330001300160Q 011000053670167315LEIDIANA BARREIRA CORADO DE SOUSA       R JULIO COLACO, 555                     VL ARICANDUVA  03502050SAO PAULO      SP0000000000000000                                        000000000000                   
0330001300161P 010001001301476520130147652  0000000036341511  0000000000036341502201700000000002587800000 02N061220163000000000000000000000000000000000000000000000000000000000000000000000000000000000000000000000000003634000300000           
0330001300162Q 011000053670167315LEIDIANA BARREIRA CORADO DE SOUSA       R JULIO COLACO, 555                     VL ARICANDUVA  03502050SAO PAULO      SP0000000000000000                                        000000000000                   
0330001300163P 010001001301476520130147652  0000000036358511  0000000000036351503201700000000002587800000 02N061220163000000000000000000000000000000000000000000000000000000000000000000000000000000000000000000000000003635000300000           
0330001300164Q 011000053670167315LEIDIANA BARREIRA CORADO DE SOUSA       R JULIO COLACO, 555                     VL ARICANDUVA  03502050SAO PAULO      SP0000000000000000                                        000000000000                   
0330001300165P 010001001301476520130147652  0000000036366511  0000000000036361504201700000000002587800000 02N061220163000000000000000000000000000000000000000000000000000000000000000000000000000000000000000000000000003636000300000           
0330001300166Q 011000053670167315LEIDIANA BARREIRA CORADO DE SOUSA       R JULIO COLACO, 555                     VL ARICANDUVA  03502050SAO PAULO      SP0000000000000000                                        000000000000                   
0330001300167P 010001001301476520130147652  0000000036374511  0000000000036371505201700000000002587800000 02N061220163000000000000000000000000000000000000000000000000000000000000000000000000000000000000000000000000003637000300000           
0330001300168Q 011000053670167315LEIDIANA BARREIRA CORADO DE SOUSA       R JULIO COLACO, 555                     VL ARICANDUVA  03502050SAO PAULO      SP0000000000000000                                        000000000000                   
0330001300169P 010001001301476520130147652  0000000036145511  0000000000036141512201600000000002587800000 02N061220163000000000000000000000000000000000000000000000000000000000000000000000000000000000000000000000000003614000300000           
0330001300170Q 011000016174494829KATIA DOS SANTOS                        R NOSA SRA BOM CONSELHO,451AP17,BLOCO E CAMPO LIMPO    05763470SAO PAULO      SP0000000000000000                                        000000000000                   
0330001300171P 010001001301476520130147652  0000000036153511  0000000000036151501201700000000002587800000 02N061220163000000000000000000000000000000000000000000000000000000000000000000000000000000000000000000000000003615000300000           
0330001300172Q 011000016174494829KATIA DOS SANTOS                        R NOSA SRA BOM CONSELHO,451AP17,BLOCO E CAMPO LIMPO    05763470SAO PAULO      SP0000000000000000                                        000000000000                   
0330001300173P 010001001301476520130147652  0000000036161511  0000000000036161502201700000000002587800000 02N061220163000000000000000000000000000000000000000000000000000000000000000000000000000000000000000000000000003616000300000           
0330001300174Q 011000016174494829KATIA DOS SANTOS                        R NOSA SRA BOM CONSELHO,451AP17,BLOCO E CAMPO LIMPO    05763470SAO PAULO      SP0000000000000000                                        000000000000                   
0330001300175P 010001001301476520130147652  0000000036171511  0000000000036171503201700000000002587800000 02N061220163000000000000000000000000000000000000000000000000000000000000000000000000000000000000000000000000003617000300000           
0330001300176Q 011000016174494829KATIA DOS SANTOS                        R NOSA SRA BOM CONSELHO,451AP17,BLOCO E CAMPO LIMPO    05763470SAO PAULO      SP0000000000000000                                        000000000000                   
0330001300177P 010001001301476520130147652  0000000036188511  0000000000036181504201700000000002587800000 02N061220163000000000000000000000000000000000000000000000000000000000000000000000000000000000000000000000000003618000300000           
0330001300178Q 011000016174494829KATIA DOS SANTOS                        R NOSA SRA BOM CONSELHO,451AP17,BLOCO E CAMPO LIMPO    05763470SAO PAULO      SP0000000000000000                                        000000000000                   
0330001300179P 010001001301476520130147652  0000000036196511  0000000000036191505201700000000002587800000 02N061220163000000000000000000000000000000000000000000000000000000000000000000000000000000000000000000000000003619000300000           
0330001300180Q 011000016174494829KATIA DOS SANTOS                        R NOSA SRA BOM CONSELHO,451AP17,BLOCO E CAMPO LIMPO    05763470SAO PAULO      SP0000000000000000                                        000000000000                   
0330001300181P 010001001301476520130147652  0000000035483511  0000000000035481512201600000000009406800000 02N061220163000000000000000000000000000000000000000000000000000000000000000000000000000000000000000000000000003548000300000           
0330001300182Q 011000013009897855EDSON CONCEICAO DO NASCIMENTO           R JOAO MATEUS RINDON, 294               PQ SAO RAFAEL  08320240SAO PAULO      SP0000000000000000                                        000000000000                   
0330001300183P 010001001301476520130147652  0000000035491511  0000000000035491501201700000000009406800000 02N061220163000000000000000000000000000000000000000000000000000000000000000000000000000000000000000000000000003549000300000           
0330001300184Q 011000013009897855EDSON CONCEICAO DO NASCIMENTO           R JOAO MATEUS RINDON, 294               PQ SAO RAFAEL  08320240SAO PAULO      SP0000000000000000                                        000000000000                   
0330001300185P 010001001301476520130147652  0000000035505511  0000000000035501502201700000000009406800000 02N061220163000000000000000000000000000000000000000000000000000000000000000000000000000000000000000000000000003550000300000           
0330001300186Q 011000013009897855EDSON CONCEICAO DO NASCIMENTO           R JOAO MATEUS RINDON, 294               PQ SAO RAFAEL  08320240SAO PAULO      SP0000000000000000                                        000000000000                   
0330001300187P 010001001301476520130147652  0000000035513511  0000000000035511503201700000000009406800000 02N061220163000000000000000000000000000000000000000000000000000000000000000000000000000000000000000000000000003551000300000           
0330001300188Q 011000013009897855EDSON CONCEICAO DO NASCIMENTO           R JOAO MATEUS RINDON, 294               PQ SAO RAFAEL  08320240SAO PAULO      SP0000000000000000                                        000000000000                   
0330001300189P 010001001301476520130147652  0000000035521511  0000000000035521504201700000000009406800000 02N061220163000000000000000000000000000000000000000000000000000000000000000000000000000000000000000000000000003552000300000           
0330001300190Q 011000013009897855EDSON CONCEICAO DO NASCIMENTO           R JOAO MATEUS RINDON, 294               PQ SAO RAFAEL  08320240SAO PAULO      SP0000000000000000                                        000000000000                   
0330001300191P 010001001301476520130147652  0000000035531511  0000000000035531505201700000000009406800000 02N061220163000000000000000000000000000000000000000000000000000000000000000000000000000000000000000000000000003553000300000           
0330001300192Q 011000013009897855EDSON CONCEICAO DO NASCIMENTO           R JOAO MATEUS RINDON, 294               PQ SAO RAFAEL  08320240SAO PAULO      SP0000000000000000                                        000000000000                   
0330001300193P 010001001301476520130147652  0000000037109511  0000000000037101512201600000000003840900000 02N061220163000000000000000000000000000000000000000000000000000000000000000000000000000000000000000000000000003710000300000           
0330001300194Q 011000005792490856ROGERIO DELGADO DE AGUILAR              R AUGUSTO CARLOS BAUMAN, 1033           ITAQUERA       08210590SAO PAULO      SP0000000000000000                                        000000000000                   
0330001300195P 010001001301476520130147652  0000000037117511  0000000000037111501201700000000003840900000 02N061220163000000000000000000000000000000000000000000000000000000000000000000000000000000000000000000000000003711000300000           
0330001300196Q 011000005792490856ROGERIO DELGADO DE AGUILAR              R AUGUSTO CARLOS BAUMAN, 1033           ITAQUERA       08210590SAO PAULO      SP0000000000000000                                        000000000000                   
0330001300197P 010001001301476520130147652  0000000037125511  0000000000037121502201700000000003840900000 02N061220163000000000000000000000000000000000000000000000000000000000000000000000000000000000000000000000000003712000300000           
0330001300198Q 011000005792490856ROGERIO DELGADO DE AGUILAR              R AUGUSTO CARLOS BAUMAN, 1033           ITAQUERA       08210590SAO PAULO      SP0000000000000000                                        000000000000                   
0330001300199P 010001001301476520130147652  0000000037133511  0000000000037131503201700000000003840900000 02N061220163000000000000000000000000000000000000000000000000000000000000000000000000000000000000000000000000003713000300000           
0330001300200Q 011000005792490856ROGERIO DELGADO DE AGUILAR              R AUGUSTO CARLOS BAUMAN, 1033           ITAQUERA       08210590SAO PAULO      SP0000000000000000                                        000000000000                   
0330001300201P 010001001301476520130147652  0000000037141511  0000000000037141504201700000000003840900000 02N061220163000000000000000000000000000000000000000000000000000000000000000000000000000000000000000000000000003714000300000           
0330001300202Q 011000005792490856ROGERIO DELGADO DE AGUILAR              R AUGUSTO CARLOS BAUMAN, 1033           ITAQUERA       08210590SAO PAULO      SP0000000000000000                                        000000000000                   
0330001300203P 010001001301476520130147652  0000000037151511  0000000000037151505201700000000003840900000 02N061220163000000000000000000000000000000000000000000000000000000000000000000000000000000000000000000000000003715000300000           
0330001300204Q 011000005792490856ROGERIO DELGADO DE AGUILAR              R AUGUSTO CARLOS BAUMAN, 1033           ITAQUERA       08210590SAO PAULO      SP0000000000000000                                        000000000000                   
0330001300205P 010001001301476520130147652  0000000037401511  0000000000037401512201600000000028669600000 02N061220163000000000000000000000000000000000000000000000000000000000000000000000000000000000000000000000000003740000300000           
0330001300206Q 011000021924287820SONIA MARIA FERNANDES N SILVA           RUA CATIPARA, 49                        BROKLIN NOVO   04561060SAO PAULO      SP0000000000000000                                        000000000000                   
0330001300207P 010001001301476520130147652  0000000037419511  0000000000037411501201700000000028669600000 02N061220163000000000000000000000000000000000000000000000000000000000000000000000000000000000000000000000000003741000300000           
0330001300208Q 011000021924287820SONIA MARIA FERNANDES N SILVA           RUA CATIPARA, 49                        BROKLIN NOVO   04561060SAO PAULO      SP0000000000000000                                        000000000000                   
0330001300209P 010001001301476520130147652  0000000037427511  0000000000037421502201700000000028669600000 02N061220163000000000000000000000000000000000000000000000000000000000000000000000000000000000000000000000000003742000300000           
0330001300210Q 011000021924287820SONIA MARIA FERNANDES N SILVA           RUA CATIPARA, 49                        BROKLIN NOVO   04561060SAO PAULO      SP0000000000000000                                        000000000000                   
0330001300211P 010001001301476520130147652  0000000037435511  0000000000037431503201700000000028669600000 02N061220163000000000000000000000000000000000000000000000000000000000000000000000000000000000000000000000000003743000300000           
0330001300212Q 011000021924287820SONIA MARIA FERNANDES N SILVA           RUA CATIPARA, 49                        BROKLIN NOVO   04561060SAO PAULO      SP0000000000000000                                        000000000000                   
0330001300213P 010001001301476520130147652  0000000037443511  0000000000037441504201700000000028669600000 02N061220163000000000000000000000000000000000000000000000000000000000000000000000000000000000000000000000000003744000300000           
0330001300214Q 011000021924287820SONIA MARIA FERNANDES N SILVA           RUA CATIPARA, 49                        BROKLIN NOVO   04561060SAO PAULO      SP0000000000000000                                        000000000000                   
0330001300215P 010001001301476520130147652  0000000037451511  0000000000037451505201700000000028669600000 02N061220163000000000000000000000000000000000000000000000000000000000000000000000000000000000000000000000000003745000300000           
0330001300216Q 011000021924287820SONIA MARIA FERNANDES N SILVA           RUA CATIPARA, 49                        BROKLIN NOVO   04561060SAO PAULO      SP0000000000000000                                        000000000000                   
0330001300217P 010001001301476520130147652  0000000035424511  0000000000035421512201600000000010460700000 02N061220163000000000000000000000000000000000000000000000000000000000000000000000000000000000000000000000000003542000300000           
0330001300218Q 011000003959642881EDI CANDIDA SOUZA DA SILVA              R FRANCISCO OLAVO DE ASSIS, 165         VL PIAUI       05109070SAO PAULO      SP0000000000000000                                        000000000000                   
0330001300219P 010001001301476520130147652  0000000035432511  0000000000035431501201700000000010460700000 02N061220163000000000000000000000000000000000000000000000000000000000000000000000000000000000000000000000000003543000300000           
0330001300220Q 011000003959642881EDI CANDIDA SOUZA DA SILVA              R FRANCISCO OLAVO DE ASSIS, 165         VL PIAUI       05109070SAO PAULO      SP0000000000000000                                        000000000000                   
0330001300221P 010001001301476520130147652  0000000035441511  0000000000035441502201700000000010460700000 02N061220163000000000000000000000000000000000000000000000000000000000000000000000000000000000000000000000000003544000300000           
0330001300222Q 011000003959642881EDI CANDIDA SOUZA DA SILVA              R FRANCISCO OLAVO DE ASSIS, 165         VL PIAUI       05109070SAO PAULO      SP0000000000000000                                        000000000000                   
0330001300223P 010001001301476520130147652  0000000035459511  0000000000035451503201700000000010460700000 02N061220163000000000000000000000000000000000000000000000000000000000000000000000000000000000000000000000000003545000300000           
0330001300224Q 011000003959642881EDI CANDIDA SOUZA DA SILVA              R FRANCISCO OLAVO DE ASSIS, 165         VL PIAUI       05109070SAO PAULO      SP0000000000000000                                        000000000000                   
0330001300225P 010001001301476520130147652  0000000035467511  0000000000035461504201700000000010460700000 02N061220163000000000000000000000000000000000000000000000000000000000000000000000000000000000000000000000000003546000300000           
0330001300226Q 011000003959642881EDI CANDIDA SOUZA DA SILVA              R FRANCISCO OLAVO DE ASSIS, 165         VL PIAUI       05109070SAO PAULO      SP0000000000000000                                        000000000000                   
0330001300227P 010001001301476520130147652  0000000035475511  0000000000035471505201700000000010460700000 02N061220163000000000000000000000000000000000000000000000000000000000000000000000000000000000000000000000000003547000300000           
0330001300228Q 011000003959642881EDI CANDIDA SOUZA DA SILVA              R FRANCISCO OLAVO DE ASSIS, 165         VL PIAUI       05109070SAO PAULO      SP0000000000000000                                        000000000000                   
0330001300229P 010001001301476520130147652  0000000035181511  0000000000035181512201600000000006411300000 02N061220163000000000000000000000000000000000000000000000000000000000000000000000000000000000000000000000000003518000300000           
0330001300230Q 011000001192409809ALLAN KARDEC MACIEL BINDES              RUA JOAO BATISTA CALOGERA,204,APTO. 902ACJ HAB SAO MIGU08051110SAO PAULO      SP0000000000000000                                        000000000000                   
0330001300231P 010001001301476520130147652  0000000035191511  0000000000035191501201700000000006411300000 02N061220163000000000000000000000000000000000000000000000000000000000000000000000000000000000000000000000000003519000300000           
0330001300232Q 011000001192409809ALLAN KARDEC MACIEL BINDES              RUA JOAO BATISTA CALOGERA,204,APTO. 902ACJ HAB SAO MIGU08051110SAO PAULO      SP0000000000000000                                        000000000000                   
0330001300233P 010001001301476520130147652  0000000035203511  0000000000035201502201700000000006411300000 02N061220163000000000000000000000000000000000000000000000000000000000000000000000000000000000000000000000000003520000300000           
0330001300234Q 011000001192409809ALLAN KARDEC MACIEL BINDES              RUA JOAO BATISTA CALOGERA,204,APTO. 902ACJ HAB SAO MIGU08051110SAO PAULO      SP0000000000000000                                        000000000000                   
0330001300235P 010001001301476520130147652  0000000035211511  0000000000035211503201700000000006411300000 02N061220163000000000000000000000000000000000000000000000000000000000000000000000000000000000000000000000000003521000300000           
0330001300236Q 011000001192409809ALLAN KARDEC MACIEL BINDES              RUA JOAO BATISTA CALOGERA,204,APTO. 902ACJ HAB SAO MIGU08051110SAO PAULO      SP0000000000000000                                        000000000000                   
0330001300237P 010001001301476520130147652  0000000035221511  0000000000035221504201700000000006411300000 02N061220163000000000000000000000000000000000000000000000000000000000000000000000000000000000000000000000000003522000300000           
0330001300238Q 011000001192409809ALLAN KARDEC MACIEL BINDES              RUA JOAO BATISTA CALOGERA,204,APTO. 902ACJ HAB SAO MIGU08051110SAO PAULO      SP0000000000000000                                        000000000000                   
0330001300239P 010001001301476520130147652  0000000035238511  0000000000035231505201700000000006411300000 02N061220163000000000000000000000000000000000000000000000000000000000000000000000000000000000000000000000000003523000300000           
0330001300240Q 011000001192409809ALLAN KARDEC MACIEL BINDES              RUA JOAO BATISTA CALOGERA,204,APTO. 902ACJ HAB SAO MIGU08051110SAO PAULO      SP0000000000000000                                        000000000000                   
0330001300241P 010001001301476520130147652  0000000035122511  0000000000035121512201600000000003955700000 02N061220163000000000000000000000000000000000000000000000000000000000000000000000000000000000000000000000000003512000300000           
0330001300242Q 011000003322325814ALEXANDRE ARCANJO AVARESE               R GERALDO PIRES SANTOS GONCALVES14,AP85 JD SAO PAULO   05843230SAO PAULO      SP0000000000000000                                        000000000000                   
0330001300243P 010001001301476520130147652  0000000035131511  0000000000035131501201700000000003955700000 02N061220163000000000000000000000000000000000000000000000000000000000000000000000000000000000000000000000000003513000300000           
0330001300244Q 011000003322325814ALEXANDRE ARCANJO AVARESE               R GERALDO PIRES SANTOS GONCALVES14,AP85 JD SAO PAULO   05843230SAO PAULO      SP0000000000000000                                        000000000000                   
0330001300245P 010001001301476520130147652  0000000035149511  0000000000035141502201700000000003955700000 02N061220163000000000000000000000000000000000000000000000000000000000000000000000000000000000000000000000000003514000300000           
0330001300246Q 011000003322325814ALEXANDRE ARCANJO AVARESE               R GERALDO PIRES SANTOS GONCALVES14,AP85 JD SAO PAULO   05843230SAO PAULO      SP0000000000000000                                        000000000000                   
0330001300247P 010001001301476520130147652  0000000035157511  0000000000035151503201700000000003955700000 02N061220163000000000000000000000000000000000000000000000000000000000000000000000000000000000000000000000000003515000300000           
0330001300248Q 011000003322325814ALEXANDRE ARCANJO AVARESE               R GERALDO PIRES SANTOS GONCALVES14,AP85 JD SAO PAULO   05843230SAO PAULO      SP0000000000000000                                        000000000000                   
0330001300249P 010001001301476520130147652  0000000035165511  0000000000035161504201700000000003955700000 02N061220163000000000000000000000000000000000000000000000000000000000000000000000000000000000000000000000000003516000300000           
0330001300250Q 011000003322325814ALEXANDRE ARCANJO AVARESE               R GERALDO PIRES SANTOS GONCALVES14,AP85 JD SAO PAULO   05843230SAO PAULO      SP0000000000000000                                        000000000000                   
0330001300251P 010001001301476520130147652  0000000035173511  0000000000035171505201700000000003955700000 02N061220163000000000000000000000000000000000000000000000000000000000000000000000000000000000000000000000000003517000300000           
0330001300252Q 011000003322325814ALEXANDRE ARCANJO AVARESE               R GERALDO PIRES SANTOS GONCALVES14,AP85 JD SAO PAULO   05843230SAO PAULO      SP0000000000000000                                        000000000000                   
0330001300253P 010001001301476520130147652  0000000035661511  0000000000035661512201600000000003342500000 02N061220163000000000000000000000000000000000000000000000000000000000000000000000000000000000000000000000000003566000300000           
0330001300254Q 011000025594670890GIOVANA DE FIGUEIREDO FERREIRA          RUA PROFESSOR TULIO ASCARELLI 192       VL MADALENA    05449020SAO PAULO      SP0000000000000000                                        000000000000                   
0330001300255P 010001001301476520130147652  0000000035671511  0000000000035671501201700000000003342500000 02N061220163000000000000000000000000000000000000000000000000000000000000000000000000000000000000000000000000003567000300000           
0330001300256Q 011000025594670890GIOVANA DE FIGUEIREDO FERREIRA          RUA PROFESSOR TULIO ASCARELLI 192       VL MADALENA    05449020SAO PAULO      SP0000000000000000                                        000000000000                   
0330001300257P 010001001301476520130147652  0000000035688511  0000000000035681502201700000000003342500000 02N061220163000000000000000000000000000000000000000000000000000000000000000000000000000000000000000000000000003568000300000           
0330001300258Q 011000025594670890GIOVANA DE FIGUEIREDO FERREIRA          RUA PROFESSOR TULIO ASCARELLI 192       VL MADALENA    05449020SAO PAULO      SP0000000000000000                                        000000000000                   
0330001300259P 010001001301476520130147652  0000000035696511  0000000000035691503201700000000003342500000 02N061220163000000000000000000000000000000000000000000000000000000000000000000000000000000000000000000000000003569000300000           
0330001300260Q 011000025594670890GIOVANA DE FIGUEIREDO FERREIRA          RUA PROFESSOR TULIO ASCARELLI 192       VL MADALENA    05449020SAO PAULO      SP0000000000000000                                        000000000000                   
0330001300261P 010001001301476520130147652  0000000035701511  0000000000035701504201700000000003342500000 02N061220163000000000000000000000000000000000000000000000000000000000000000000000000000000000000000000000000003570000300000           
0330001300262Q 011000025594670890GIOVANA DE FIGUEIREDO FERREIRA          RUA PROFESSOR TULIO ASCARELLI 192       VL MADALENA    05449020SAO PAULO      SP0000000000000000                                        000000000000                   
0330001300263P 010001001301476520130147652  0000000035718511  0000000000035711505201700000000003342500000 02N061220163000000000000000000000000000000000000000000000000000000000000000000000000000000000000000000000000003571000300000           
0330001300264Q 011000025594670890GIOVANA DE FIGUEIREDO FERREIRA          RUA PROFESSOR TULIO ASCARELLI 192       VL MADALENA    05449020SAO PAULO      SP0000000000000000                                        000000000000                   
0330001300265P 010001001301476520130147652  0000000035246511  0000000000035241512201600000000015991800000 02N061220163000000000000000000000000000000000000000000000000000000000000000000000000000000000000000000000000003524000300000           
0330001300266Q 011000059859326800AMAURI VITTORINO DA SILVA               R SASSAKI, 50  APTO 83                  VL MARARI      04403000SAO PAULO      SP0000000000000000                                        000000000000                   
0330001300267P 010001001301476520130147652  0000000035254511  0000000000035251501201700000000015991800000 02N061220163000000000000000000000000000000000000000000000000000000000000000000000000000000000000000000000000003525000300000           
0330001300268Q 011000059859326800AMAURI VITTORINO DA SILVA               R SASSAKI, 50  APTO 83                  VL MARARI      04403000SAO PAULO      SP0000000000000000                                        000000000000                   
0330001300269P 010001001301476520130147652  0000000035262511  0000000000035261502201700000000015991800000 02N061220163000000000000000000000000000000000000000000000000000000000000000000000000000000000000000000000000003526000300000           
0330001300270Q 011000059859326800AMAURI VITTORINO DA SILVA               R SASSAKI, 50  APTO 83                  VL MARARI      04403000SAO PAULO      SP0000000000000000                                        000000000000                   
0330001300271P 010001001301476520130147652  0000000035271511  0000000000035271503201700000000015991800000 02N061220163000000000000000000000000000000000000000000000000000000000000000000000000000000000000000000000000003527000300000           
0330001300272Q 011000059859326800AMAURI VITTORINO DA SILVA               R SASSAKI, 50  APTO 83                  VL MARARI      04403000SAO PAULO      SP0000000000000000                                        000000000000                   
0330001300273P 010001001301476520130147652  0000000035289511  0000000000035281504201700000000015991800000 02N061220163000000000000000000000000000000000000000000000000000000000000000000000000000000000000000000000000003528000300000           
0330001300274Q 011000059859326800AMAURI VITTORINO DA SILVA               R SASSAKI, 50  APTO 83                  VL MARARI      04403000SAO PAULO      SP0000000000000000                                        000000000000                   
0330001300275P 010001001301476520130147652  0000000035297511  0000000000035291505201700000000015991800000 02N061220163000000000000000000000000000000000000000000000000000000000000000000000000000000000000000000000000003529000300000           
0330001300276Q 011000059859326800AMAURI VITTORINO DA SILVA               R SASSAKI, 50  APTO 83                  VL MARARI      04403000SAO PAULO      SP0000000000000000                                        000000000000                   
0330001300277P 010001001301476520130147652  0000000036625511  0000000000036621512201600000000004565000000 02N061220163000000000000000000000000000000000000000000000000000000000000000000000000000000000000000000000000003662000300000           
0330001300278Q 011000003698338807MARIA CRISTINA ORTIZ                    AV ORDEM E PROGRESSO, 1236 24 A         CASA VERDE     02518130SAO PAULO      SP0000000000000000                                        000000000000                   
0330001300279P 010001001301476520130147652  0000000036633511  0000000000036631501201700000000004565000000 02N061220163000000000000000000000000000000000000000000000000000000000000000000000000000000000000000000000000003663000300000           
0330001300280Q 011000003698338807MARIA CRISTINA ORTIZ                    AV ORDEM E PROGRESSO, 1236 24 A         CASA VERDE     02518130SAO PAULO      SP0000000000000000                                        000000000000                   
0330001300281P 010001001301476520130147652  0000000036641511  0000000000036641502201700000000004565000000 02N061220163000000000000000000000000000000000000000000000000000000000000000000000000000000000000000000000000003664000300000           
0330001300282Q 011000003698338807MARIA CRISTINA ORTIZ                    AV ORDEM E PROGRESSO, 1236 24 A         CASA VERDE     02518130SAO PAULO      SP0000000000000000                                        000000000000                   
0330001300283P 010001001301476520130147652  0000000036651511  0000000000036651503201700000000004565000000 02N061220163000000000000000000000000000000000000000000000000000000000000000000000000000000000000000000000000003665000300000           
0330001300284Q 011000003698338807MARIA CRISTINA ORTIZ                    AV ORDEM E PROGRESSO, 1236 24 A         CASA VERDE     02518130SAO PAULO      SP0000000000000000                                        000000000000                   
0330001300285P 010001001301476520130147652  0000000036668511  0000000000036661504201700000000004565000000 02N061220163000000000000000000000000000000000000000000000000000000000000000000000000000000000000000000000000003666000300000           
0330001300286Q 011000003698338807MARIA CRISTINA ORTIZ                    AV ORDEM E PROGRESSO, 1236 24 A         CASA VERDE     02518130SAO PAULO      SP0000000000000000                                        000000000000                   
0330001300287P 010001001301476520130147652  0000000036676511  0000000000036671505201700000000004565000000 02N061220163000000000000000000000000000000000000000000000000000000000000000000000000000000000000000000000000003667000300000           
0330001300288Q 011000003698338807MARIA CRISTINA ORTIZ                    AV ORDEM E PROGRESSO, 1236 24 A         CASA VERDE     02518130SAO PAULO      SP0000000000000000                                        000000000000                   
0330001300289P 010001001301476520130147652  0000000036447511  0000000000036441512201600000000004101800000 02N061220163000000000000000000000000000000000000000000000000000000000000000000000000000000000000000000000000003644000300000           
0330001300290Q 011000004575259837MAISA CRISTINA CARVALHO                 RUA BETA, 127                           VL MAZZEI      09172520STO ANDRE      SP0000000000000000                                        000000000000                   
0330001300291P 010001001301476520130147652  0000000036455511  0000000000036451501201700000000004101800000 02N061220163000000000000000000000000000000000000000000000000000000000000000000000000000000000000000000000000003645000300000           
0330001300292Q 011000004575259837MAISA CRISTINA CARVALHO                 RUA BETA, 127                           VL MAZZEI      09172520STO ANDRE      SP0000000000000000                                        000000000000                   
0330001300293P 010001001301476520130147652  0000000036463511  0000000000036461502201700000000004101800000 02N061220163000000000000000000000000000000000000000000000000000000000000000000000000000000000000000000000000003646000300000           
0330001300294Q 011000004575259837MAISA CRISTINA CARVALHO                 RUA BETA, 127                           VL MAZZEI      09172520STO ANDRE      SP0000000000000000                                        000000000000                   
0330001300295P 010001001301476520130147652  0000000036471511  0000000000036471503201700000000004101800000 02N061220163000000000000000000000000000000000000000000000000000000000000000000000000000000000000000000000000003647000300000           
0330001300296Q 011000004575259837MAISA CRISTINA CARVALHO                 RUA BETA, 127                           VL MAZZEI      09172520STO ANDRE      SP0000000000000000                                        000000000000                   
0330001300297P 010001001301476520130147652  0000000036481511  0000000000036481504201700000000004101800000 02N061220163000000000000000000000000000000000000000000000000000000000000000000000000000000000000000000000000003648000300000           
0330001300298Q 011000004575259837MAISA CRISTINA CARVALHO                 RUA BETA, 127                           VL MAZZEI      09172520STO ANDRE      SP0000000000000000                                        000000000000                   
0330001300299P 010001001301476520130147652  0000000036498511  0000000000036491505201700000000004101800000 02N061220163000000000000000000000000000000000000000000000000000000000000000000000000000000000000000000000000003649000300000           
0330001300300Q 011000004575259837MAISA CRISTINA CARVALHO                 RUA BETA, 127                           VL MAZZEI      09172520STO ANDRE      SP0000000000000000                                        000000000000                   
0330001300301P 010001001301476520130147652  0000000036269511  0000000000036261512201600000000015864800000 02N061220163000000000000000000000000000000000000000000000000000000000000000000000000000000000000000000000000003626000300000           
0330001300302Q 011000007269224803LAERCIO SANGIORATTO                     RUA ARALDO ARMANI, 336                  VL SAO SILVERIO09895740S B DO CAMPO   SP0000000000000000                                        000000000000                   
0330001300303P 010001001301476520130147652  0000000036277511  0000000000036271501201700000000015864800000 02N061220163000000000000000000000000000000000000000000000000000000000000000000000000000000000000000000000000003627000300000           
0330001300304Q 011000007269224803LAERCIO SANGIORATTO                     RUA ARALDO ARMANI, 336                  VL SAO SILVERIO09895740S B DO CAMPO   SP0000000000000000                                        000000000000                   
0330001300305P 010001001301476520130147652  0000000036285511  0000000000036281502201700000000015864800000 02N061220163000000000000000000000000000000000000000000000000000000000000000000000000000000000000000000000000003628000300000           
0330001300306Q 011000007269224803LAERCIO SANGIORATTO                     RUA ARALDO ARMANI, 336                  VL SAO SILVERIO09895740S B DO CAMPO   SP0000000000000000                                        000000000000                   
0330001300307P 010001001301476520130147652  0000000036293511  0000000000036291503201700000000015864800000 02N061220163000000000000000000000000000000000000000000000000000000000000000000000000000000000000000000000000003629000300000           
0330001300308Q 011000007269224803LAERCIO SANGIORATTO                     RUA ARALDO ARMANI, 336                  VL SAO SILVERIO09895740S B DO CAMPO   SP0000000000000000                                        000000000000                   
0330001300309P 010001001301476520130147652  0000000036307511  0000000000036301504201700000000015864800000 02N061220163000000000000000000000000000000000000000000000000000000000000000000000000000000000000000000000000003630000300000           
0330001300310Q 011000007269224803LAERCIO SANGIORATTO                     RUA ARALDO ARMANI, 336                  VL SAO SILVERIO09895740S B DO CAMPO   SP0000000000000000                                        000000000000                   
0330001300311P 010001001301476520130147652  0000000036315511  0000000000036311505201700000000015864800000 02N061220163000000000000000000000000000000000000000000000000000000000000000000000000000000000000000000000000003631000300000           
0330001300312Q 011000007269224803LAERCIO SANGIORATTO                     RUA ARALDO ARMANI, 336                  VL SAO SILVERIO09895740S B DO CAMPO   SP0000000000000000                                        000000000000                   
0330001300313P 010001001301476520130147652  0000000036986511  0000000000036981512201600000000003342500000 02N061220163000000000000000000000000000000000000000000000000000000000000000000000000000000000000000000000000003698000300000           
0330001300314Q 011000016770309840PAULA APARECIDA DE A C DA SILVA         R IPE, 563 BL 24 AP 107                 JD ESTRELA     09340570MAUA           SP0000000000000000                                        000000000000                   
0330001300315P 010001001301476520130147652  0000000036994511  0000000000036991501201700000000003342500000 02N061220163000000000000000000000000000000000000000000000000000000000000000000000000000000000000000000000000003699000300000           
0330001300316Q 011000016770309840PAULA APARECIDA DE A C DA SILVA         R IPE, 563 BL 24 AP 107                 JD ESTRELA     09340570MAUA           SP0000000000000000                                        000000000000                   
0330001300317P 010001001301476520130147652  0000000037001511  0000000000037001502201700000000003342500000 02N061220163000000000000000000000000000000000000000000000000000000000000000000000000000000000000000000000000003700000300000           
0330001300318Q 011000016770309840PAULA APARECIDA DE A C DA SILVA         R IPE, 563 BL 24 AP 107                 JD ESTRELA     09340570MAUA           SP0000000000000000                                        000000000000                   
0330001300319P 010001001301476520130147652  0000000037011511  0000000000037011503201700000000003342500000 02N061220163000000000000000000000000000000000000000000000000000000000000000000000000000000000000000000000000003701000300000           
0330001300320Q 011000016770309840PAULA APARECIDA DE A C DA SILVA         R IPE, 563 BL 24 AP 107                 JD ESTRELA     09340570MAUA           SP0000000000000000                                        000000000000                   
0330001300321P 010001001301476520130147652  0000000037028511  0000000000037021504201700000000003342500000 02N061220163000000000000000000000000000000000000000000000000000000000000000000000000000000000000000000000000003702000300000           
0330001300322Q 011000016770309840PAULA APARECIDA DE A C DA SILVA         R IPE, 563 BL 24 AP 107                 JD ESTRELA     09340570MAUA           SP0000000000000000                                        000000000000                   
0330001300323P 010001001301476520130147652  0000000037036511  0000000000037031505201700000000003342500000 02N061220163000000000000000000000000000000000000000000000000000000000000000000000000000000000000000000000000003703000300000           
0330001300324Q 011000016770309840PAULA APARECIDA DE A C DA SILVA         R IPE, 563 BL 24 AP 107                 JD ESTRELA     09340570MAUA           SP0000000000000000                                        000000000000                   
0330001300325P 010001001301476520130147652  0000000036561511  0000000000036561512201600000000000936300000 02N061220163000000000000000000000000000000000000000000000000000000000000000000000000000000000000000000000000003656000300000           
0330001300326Q 011000000166004871MARCO ANTONIO BEBEDICTO                 AV CUPECE, 6066 BL 04 AP 52             JD MIRIAM      04366001SAO PAULO      SP0000000000000000                                        000000000000                   
0330001300327P 010001001301476520130147652  0000000036579511  0000000000036571501201700000000000936300000 02N061220163000000000000000000000000000000000000000000000000000000000000000000000000000000000000000000000000003657000300000           
0330001300328Q 011000000166004871MARCO ANTONIO BEBEDICTO                 AV CUPECE, 6066 BL 04 AP 52             JD MIRIAM      04366001SAO PAULO      SP0000000000000000                                        000000000000                   
0330001300329P 010001001301476520130147652  0000000036587511  0000000000036581502201700000000000936300000 02N061220163000000000000000000000000000000000000000000000000000000000000000000000000000000000000000000000000003658000300000           
0330001300330Q 011000000166004871MARCO ANTONIO BEBEDICTO                 AV CUPECE, 6066 BL 04 AP 52             JD MIRIAM      04366001SAO PAULO      SP0000000000000000                                        000000000000                   
0330001300331P 010001001301476520130147652  0000000036595511  0000000000036591503201700000000000936300000 02N061220163000000000000000000000000000000000000000000000000000000000000000000000000000000000000000000000000003659000300000           
0330001300332Q 011000000166004871MARCO ANTONIO BEBEDICTO                 AV CUPECE, 6066 BL 04 AP 52             JD MIRIAM      04366001SAO PAULO      SP0000000000000000                                        000000000000                   
0330001300333P 010001001301476520130147652  0000000036609511  0000000000036601504201700000000000936300000 02N061220163000000000000000000000000000000000000000000000000000000000000000000000000000000000000000000000000003660000300000           
0330001300334Q 011000000166004871MARCO ANTONIO BEBEDICTO                 AV CUPECE, 6066 BL 04 AP 52             JD MIRIAM      04366001SAO PAULO      SP0000000000000000                                        000000000000                   
0330001300335P 010001001301476520130147652  0000000036617511  0000000000036611505201700000000000936300000 02N061220163000000000000000000000000000000000000000000000000000000000000000000000000000000000000000000000000003661000300000           
0330001300336Q 011000000166004871MARCO ANTONIO BEBEDICTO                 AV CUPECE, 6066 BL 04 AP 52             JD MIRIAM      04366001SAO PAULO      SP0000000000000000                                        000000000000                   
0330001300337P 010001001301476520130147652  0000000035841511  0000000000035841512201600000000003355300000 02N061220163000000000000000000000000000000000000000000000000000000000000000000000000000000000000000000000000003584000300000           
0330001300338Q 011000058446036649GUALDINA LIENICE SANTOS                 ESTRADA DOS MIRANTES, 505 CASA 08       JD MARIADUART  05752001SAO PAULO      SP0000000000000000                                        000000000000                   
0330001300339P 010001001301476520130147652  0000000035858511  0000000000035851501201700000000003355300000 02N061220163000000000000000000000000000000000000000000000000000000000000000000000000000000000000000000000000003585000300000           
0330001300340Q 011000058446036649GUALDINA LIENICE SANTOS                 ESTRADA DOS MIRANTES, 505 CASA 08       JD MARIADUART  05752001SAO PAULO      SP0000000000000000                                        000000000000                   
0330001300341P 010001001301476520130147652  0000000035866511  0000000000035861502201700000000003355300000 02N061220163000000000000000000000000000000000000000000000000000000000000000000000000000000000000000000000000003586000300000           
0330001300342Q 011000058446036649GUALDINA LIENICE SANTOS                 ESTRADA DOS MIRANTES, 505 CASA 08       JD MARIADUART  05752001SAO PAULO      SP0000000000000000                                        000000000000                   
0330001300343P 010001001301476520130147652  0000000035874511  0000000000035871503201700000000003355300000 02N061220163000000000000000000000000000000000000000000000000000000000000000000000000000000000000000000000000003587000300000           
0330001300344Q 011000058446036649GUALDINA LIENICE SANTOS                 ESTRADA DOS MIRANTES, 505 CASA 08       JD MARIADUART  05752001SAO PAULO      SP0000000000000000                                        000000000000                   
0330001300345P 010001001301476520130147652  0000000035882511  0000000000035881504201700000000003355300000 02N061220163000000000000000000000000000000000000000000000000000000000000000000000000000000000000000000000000003588000300000           
0330001300346Q 011000058446036649GUALDINA LIENICE SANTOS                 ESTRADA DOS MIRANTES, 505 CASA 08       JD MARIADUART  05752001SAO PAULO      SP0000000000000000                                        000000000000                   
0330001300347P 010001001301476520130147652  0000000035891511  0000000000035891505201700000000003355300000 02N061220163000000000000000000000000000000000000000000000000000000000000000000000000000000000000000000000000003589000300000           
0330001300348Q 011000058446036649GUALDINA LIENICE SANTOS                 ESTRADA DOS MIRANTES, 505 CASA 08       JD MARIADUART  05752001SAO PAULO      SP0000000000000000                                        000000000000                   
0330001300349P 010001001301476520130147652  0000000036382511  0000000000036381512201600000000008724500000 02N061220163000000000000000000000000000000000000000000000000000000000000000000000000000000000000000000000000003638000300000           
0330001300350Q 011000000896336875MAGALI JORGE DOS SANTOS VICTORINO       RUA BOLIVIA 829                         PQ DAS NACOES  09280290STO ANDRE      SP0000000000000000                                        000000000000                   
0330001300351P 010001001301476520130147652  0000000036391511  0000000000036391501201700000000008724500000 02N061220163000000000000000000000000000000000000000000000000000000000000000000000000000000000000000000000000003639000300000           
0330001300352Q 011000000896336875MAGALI JORGE DOS SANTOS VICTORINO       RUA BOLIVIA 829                         PQ DAS NACOES  09280290STO ANDRE      SP0000000000000000                                        000000000000                   
0330001300353P 010001001301476520130147652  0000000036404511  0000000000036401502201700000000008724500000 02N061220163000000000000000000000000000000000000000000000000000000000000000000000000000000000000000000000000003640000300000           
0330001300354Q 011000000896336875MAGALI JORGE DOS SANTOS VICTORINO       RUA BOLIVIA 829                         PQ DAS NACOES  09280290STO ANDRE      SP0000000000000000                                        000000000000                   
0330001300355P 010001001301476520130147652  0000000036412511  0000000000036411503201700000000008724500000 02N061220163000000000000000000000000000000000000000000000000000000000000000000000000000000000000000000000000003641000300000           
0330001300356Q 011000000896336875MAGALI JORGE DOS SANTOS VICTORINO       RUA BOLIVIA 829                         PQ DAS NACOES  09280290STO ANDRE      SP0000000000000000                                        000000000000                   
0330001300357P 010001001301476520130147652  0000000036421511  0000000000036421504201700000000008724500000 02N061220163000000000000000000000000000000000000000000000000000000000000000000000000000000000000000000000000003642000300000           
0330001300358Q 011000000896336875MAGALI JORGE DOS SANTOS VICTORINO       RUA BOLIVIA 829                         PQ DAS NACOES  09280290STO ANDRE      SP0000000000000000                                        000000000000                   
0330001300359P 010001001301476520130147652  0000000036439511  0000000000036431505201700000000008724500000 02N061220163000000000000000000000000000000000000000000000000000000000000000000000000000000000000000000000000003643000300000           
0330001300360Q 011000000896336875MAGALI JORGE DOS SANTOS VICTORINO       RUA BOLIVIA 829                         PQ DAS NACOES  09280290STO ANDRE      SP0000000000000000                                        000000000000                   
0330001300361P 010001001301476520130147652  0000000036684511  0000000000036681512201600000000006461300000 02N061220163000000000000000000000000000000000000000000000000000000000000000000000000000000000000000000000000003668000300000           
0330001300362Q 011000003999808810MARIA LUCIA GOURLART SIQUEIRA           LARGO DO AROUCHE, 187 AP 71,BLOCO ,     STA EFIGENIA   01219011SAO PAULO      SP0000000000000000                                        000000000000                   
0330001300363P 010001001301476520130147652  0000000036692511  0000000000036691501201700000000006461300000 02N061220163000000000000000000000000000000000000000000000000000000000000000000000000000000000000000000000000003669000300000           
0330001300364Q 011000003999808810MARIA LUCIA GOURLART SIQUEIRA           LARGO DO AROUCHE, 187 AP 71,BLOCO ,     STA EFIGENIA   01219011SAO PAULO      SP0000000000000000                                        000000000000                   
0330001300365P 010001001301476520130147652  0000000036706511  0000000000036701502201700000000006461300000 02N061220163000000000000000000000000000000000000000000000000000000000000000000000000000000000000000000000000003670000300000           
0330001300366Q 011000003999808810MARIA LUCIA GOURLART SIQUEIRA           LARGO DO AROUCHE, 187 AP 71,BLOCO ,     STA EFIGENIA   01219011SAO PAULO      SP0000000000000000                                        000000000000                   
0330001300367P 010001001301476520130147652  0000000036714511  0000000000036711503201700000000006461300000 02N061220163000000000000000000000000000000000000000000000000000000000000000000000000000000000000000000000000003671000300000           
0330001300368Q 011000003999808810MARIA LUCIA GOURLART SIQUEIRA           LARGO DO AROUCHE, 187 AP 71,BLOCO ,     STA EFIGENIA   01219011SAO PAULO      SP0000000000000000                                        000000000000                   
0330001300369P 010001001301476520130147652  0000000036722511  0000000000036721504201700000000006461300000 02N061220163000000000000000000000000000000000000000000000000000000000000000000000000000000000000000000000000003672000300000           
0330001300370Q 011000003999808810MARIA LUCIA GOURLART SIQUEIRA           LARGO DO AROUCHE, 187 AP 71,BLOCO ,     STA EFIGENIA   01219011SAO PAULO      SP0000000000000000                                        000000000000                   
0330001300371P 010001001301476520130147652  0000000036731511  0000000000036731505201700000000006461300000 02N061220163000000000000000000000000000000000000000000000000000000000000000000000000000000000000000000000000003673000300000           
0330001300372Q 011000003999808810MARIA LUCIA GOURLART SIQUEIRA           LARGO DO AROUCHE, 187 AP 71,BLOCO ,     STA EFIGENIA   01219011SAO PAULO      SP0000000000000000                                        000000000000                   
0330001300373P 010001001301476520130147652  0000000036862511  0000000000036861512201600000000012822000000 02N061220163000000000000000000000000000000000000000000000000000000000000000000000000000000000000000000000000003686000300000           
0330001300374Q 011000030367388863MERCEDES VATAN DOS SANTOS               R PORTO MARTINS, 56                     BROOKLIM       04570140SAO PAULO      SP0000000000000000                                        000000000000                   
0330001300375P 010001001301476520130147652  0000000036871511  0000000000036871501201700000000012822000000 02N061220163000000000000000000000000000000000000000000000000000000000000000000000000000000000000000000000000003687000300000           
0330001300376Q 011000030367388863MERCEDES VATAN DOS SANTOS               R PORTO MARTINS, 56                     BROOKLIM       04570140SAO PAULO      SP0000000000000000                                        000000000000                   
0330001300377P 010001001301476520130147652  0000000036889511  0000000000036881502201700000000012822000000 02N061220163000000000000000000000000000000000000000000000000000000000000000000000000000000000000000000000000003688000300000           
0330001300378Q 011000030367388863MERCEDES VATAN DOS SANTOS               R PORTO MARTINS, 56                     BROOKLIM       04570140SAO PAULO      SP0000000000000000                                        000000000000                   
0330001300379P 010001001301476520130147652  0000000036897511  0000000000036891503201700000000012822000000 02N061220163000000000000000000000000000000000000000000000000000000000000000000000000000000000000000000000000003689000300000           
0330001300380Q 011000030367388863MERCEDES VATAN DOS SANTOS               R PORTO MARTINS, 56                     BROOKLIM       04570140SAO PAULO      SP0000000000000000                                        000000000000                   
0330001300381P 010001001301476520130147652  0000000036901511  0000000000036901504201700000000012822000000 02N061220163000000000000000000000000000000000000000000000000000000000000000000000000000000000000000000000000003690000300000           
0330001300382Q 011000030367388863MERCEDES VATAN DOS SANTOS               R PORTO MARTINS, 56                     BROOKLIM       04570140SAO PAULO      SP0000000000000000                                        000000000000                   
0330001300383P 010001001301476520130147652  0000000036919511  0000000000036911505201700000000012822000000 02N061220163000000000000000000000000000000000000000000000000000000000000000000000000000000000000000000000000003691000300000           
0330001300384Q 011000030367388863MERCEDES VATAN DOS SANTOS               R PORTO MARTINS, 56                     BROOKLIM       04570140SAO PAULO      SP0000000000000000                                        000000000000                   
0330001300385P 010001001301476520130147652  0000000037168511  0000000000037161512201600000000002479100000 02N061220163000000000000000000000000000000000000000000000000000000000000000000000000000000000000000000000000003716000300000           
0330001300386Q 011000014653167877SAMIRA FERNANDES                        R ENG SA FREIRE, 221                    JD ANGELA      03985070SAO PAULO      SP0000000000000000                                        000000000000                   
0330001300387P 010001001301476520130147652  0000000037176511  0000000000037171501201700000000002479100000 02N061220163000000000000000000000000000000000000000000000000000000000000000000000000000000000000000000000000003717000300000           
0330001300388Q 011000014653167877SAMIRA FERNANDES                        R ENG SA FREIRE, 221                    JD ANGELA      03985070SAO PAULO      SP0000000000000000                                        000000000000                   
0330001300389P 010001001301476520130147652  0000000037184511  0000000000037181502201700000000002479100000 02N061220163000000000000000000000000000000000000000000000000000000000000000000000000000000000000000000000000003718000300000           
0330001300390Q 011000014653167877SAMIRA FERNANDES                        R ENG SA FREIRE, 221                    JD ANGELA      03985070SAO PAULO      SP0000000000000000                                        000000000000                   
0330001300391P 010001001301476520130147652  0000000037192511  0000000000037191503201700000000002479100000 02N061220163000000000000000000000000000000000000000000000000000000000000000000000000000000000000000000000000003719000300000           
0330001300392Q 011000014653167877SAMIRA FERNANDES                        R ENG SA FREIRE, 221                    JD ANGELA      03985070SAO PAULO      SP0000000000000000                                        000000000000                   
0330001300393P 010001001301476520130147652  0000000037206511  0000000000037201504201700000000002479100000 02N061220163000000000000000000000000000000000000000000000000000000000000000000000000000000000000000000000000003720000300000           
0330001300394Q 011000014653167877SAMIRA FERNANDES                        R ENG SA FREIRE, 221                    JD ANGELA      03985070SAO PAULO      SP0000000000000000                                        000000000000                   
0330001300395P 010001001301476520130147652  0000000037214511  0000000000037211505201700000000002479100000 02N061220163000000000000000000000000000000000000000000000000000000000000000000000000000000000000000000000000003721000300000           
0330001300396Q 011000014653167877SAMIRA FERNANDES                        R ENG SA FREIRE, 221                    JD ANGELA      03985070SAO PAULO      SP0000000000000000                                        000000000000                   
0330001300397P 010001001301476520130147652  0000000035548511  0000000000035541512201600000000006461300000 02N061220163000000000000000000000000000000000000000000000000000000000000000000000000000000000000000000000000003554000300000           
0330001300398Q 011000028152942812FERNANDA MELLO DEMAI                    R PEDRO TAQUES, 99 APTO 42              CONSOLACAO     01415010SAO PAULO      SP0000000000000000                                        000000000000                   
0330001300399P 010001001301476520130147652  0000000035556511  0000000000035551501201700000000006461300000 02N061220163000000000000000000000000000000000000000000000000000000000000000000000000000000000000000000000000003555000300000           
0330001300400Q 011000028152942812FERNANDA MELLO DEMAI                    R PEDRO TAQUES, 99 APTO 42              CONSOLACAO     01415010SAO PAULO      SP0000000000000000                                        000000000000                   
0330001300401P 010001001301476520130147652  0000000035564511  0000000000035561502201700000000006461300000 02N061220163000000000000000000000000000000000000000000000000000000000000000000000000000000000000000000000000003556000300000           
0330001300402Q 011000028152942812FERNANDA MELLO DEMAI                    R PEDRO TAQUES, 99 APTO 42              CONSOLACAO     01415010SAO PAULO      SP0000000000000000                                        000000000000                   
0330001300403P 010001001301476520130147652  0000000035572511  0000000000035571503201700000000006461300000 02N061220163000000000000000000000000000000000000000000000000000000000000000000000000000000000000000000000000003557000300000           
0330001300404Q 011000028152942812FERNANDA MELLO DEMAI                    R PEDRO TAQUES, 99 APTO 42              CONSOLACAO     01415010SAO PAULO      SP0000000000000000                                        000000000000                   
0330001300405P 010001001301476520130147652  0000000035581511  0000000000035581504201700000000006461300000 02N061220163000000000000000000000000000000000000000000000000000000000000000000000000000000000000000000000000003558000300000           
0330001300406Q 011000028152942812FERNANDA MELLO DEMAI                    R PEDRO TAQUES, 99 APTO 42              CONSOLACAO     01415010SAO PAULO      SP0000000000000000                                        000000000000                   
0330001300407P 010001001301476520130147652  0000000035599511  0000000000035591505201700000000006461300000 02N061220163000000000000000000000000000000000000000000000000000000000000000000000000000000000000000000000000003559000300000           
0330001300408Q 011000028152942812FERNANDA MELLO DEMAI                    R PEDRO TAQUES, 99 APTO 42              CONSOLACAO     01415010SAO PAULO      SP0000000000000000                                        000000000000                   
0330001300409P 010001001301476520130147652  0000000036803511  0000000000036801512201600000000028440100000 02N061220163000000000000000000000000000000000000000000000000000000000000000000000000000000000000000000000000003680000300000           
0330001300410Q 011000065949684834MARIA MARLENE T COSTA                   RUA DOMINGOS DE MORAIS, 70 AP 32        VL MARIANA     04010000SAO PAULO      SP0000000000000000                                        000000000000                   
0330001300411P 010001001301476520130147652  0000000036811511  0000000000036811501201700000000028440100000 02N061220163000000000000000000000000000000000000000000000000000000000000000000000000000000000000000000000000003681000300000           
0330001300412Q 011000065949684834MARIA MARLENE T COSTA                   RUA DOMINGOS DE MORAIS, 70 AP 32        VL MARIANA     04010000SAO PAULO      SP0000000000000000                                        000000000000                   
0330001300413P 010001001301476520130147652  0000000036821511  0000000000036821502201700000000028440100000 02N061220163000000000000000000000000000000000000000000000000000000000000000000000000000000000000000000000000003682000300000           
0330001300414Q 011000065949684834MARIA MARLENE T COSTA                   RUA DOMINGOS DE MORAIS, 70 AP 32        VL MARIANA     04010000SAO PAULO      SP0000000000000000                                        000000000000                   
0330001300415P 010001001301476520130147652  0000000036838511  0000000000036831503201700000000028440100000 02N061220163000000000000000000000000000000000000000000000000000000000000000000000000000000000000000000000000003683000300000           
0330001300416Q 011000065949684834MARIA MARLENE T COSTA                   RUA DOMINGOS DE MORAIS, 70 AP 32        VL MARIANA     04010000SAO PAULO      SP0000000000000000                                        000000000000                   
0330001300417P 010001001301476520130147652  0000000036846511  0000000000036841504201700000000028440100000 02N061220163000000000000000000000000000000000000000000000000000000000000000000000000000000000000000000000000003684000300000           
